{
  "contractName": "STKChannel",
  "abi": [
    {
      "constant": true,
      "inputs": [],
      "name": "channelData_",
      "outputs": [
        {
          "name": "token_",
          "type": "address"
        },
        {
          "name": "userAddress_",
          "type": "address"
        },
        {
          "name": "signerAddress_",
          "type": "address"
        },
        {
          "name": "recipientAddress_",
          "type": "address"
        },
        {
          "name": "closingAddress_",
          "type": "address"
        },
        {
          "name": "timeout_",
          "type": "uint256"
        },
        {
          "name": "amountOwed_",
          "type": "uint256"
        },
        {
          "name": "openedBlock_",
          "type": "uint256"
        },
        {
          "name": "closedBlock_",
          "type": "uint256"
        },
        {
          "name": "closedNonce_",
          "type": "uint256"
        }
      ],
      "payable": false,
      "stateMutability": "view",
      "type": "function"
    },
    {
      "inputs": [
        {
          "name": "_from",
          "type": "address"
        },
        {
          "name": "_addressOfSigner",
          "type": "address"
        },
        {
          "name": "_addressOfToken",
          "type": "address"
        },
        {
          "name": "_expiryNumberOfBlocks",
          "type": "uint256"
        }
      ],
      "payable": false,
      "stateMutability": "nonpayable",
      "type": "constructor"
    },
    {
      "anonymous": false,
      "inputs": [
        {
          "indexed": false,
          "name": "from",
          "type": "address"
        },
        {
          "indexed": false,
          "name": "to",
          "type": "address"
        },
        {
          "indexed": false,
          "name": "blockNumber",
          "type": "uint256"
        }
      ],
      "name": "LogChannelOpened",
      "type": "event"
    },
    {
      "anonymous": false,
      "inputs": [
        {
          "indexed": false,
          "name": "blockNumber",
          "type": "uint256"
        },
        {
          "indexed": false,
          "name": "closer",
          "type": "address"
        },
        {
          "indexed": false,
          "name": "amount",
          "type": "uint256"
        }
      ],
      "name": "LogChannelClosed",
      "type": "event"
    },
    {
      "anonymous": false,
      "inputs": [
        {
          "indexed": false,
          "name": "depositingAddress",
          "type": "address"
        },
        {
          "indexed": false,
          "name": "amount",
          "type": "uint256"
        }
      ],
      "name": "LogDeposited",
      "type": "event"
    },
    {
      "anonymous": false,
      "inputs": [
        {
          "indexed": false,
          "name": "amount",
          "type": "uint256"
        },
        {
          "indexed": false,
          "name": "caller",
          "type": "address"
        }
      ],
      "name": "LogChannelContested",
      "type": "event"
    },
    {
      "constant": false,
      "inputs": [
        {
          "name": "_nonce",
          "type": "uint256"
        },
        {
          "name": "_amount",
          "type": "uint256"
        },
        {
          "name": "_v",
          "type": "uint8"
        },
        {
          "name": "_r",
          "type": "bytes32"
        },
        {
          "name": "_s",
          "type": "bytes32"
        }
      ],
      "name": "close",
      "outputs": [],
      "payable": false,
      "stateMutability": "nonpayable",
      "type": "function"
    },
    {
      "constant": false,
      "inputs": [],
      "name": "closeWithoutSignature",
      "outputs": [],
      "payable": false,
      "stateMutability": "nonpayable",
      "type": "function"
    },
    {
      "constant": false,
      "inputs": [
        {
          "name": "_nonce",
          "type": "uint256"
        },
        {
          "name": "_amount",
          "type": "uint256"
        },
        {
          "name": "_v",
          "type": "uint8"
        },
        {
          "name": "_r",
          "type": "bytes32"
        },
        {
          "name": "_s",
          "type": "bytes32"
        }
      ],
      "name": "updateClosedChannel",
      "outputs": [],
      "payable": false,
      "stateMutability": "nonpayable",
      "type": "function"
    },
    {
      "constant": false,
      "inputs": [
        {
          "name": "_returnToken",
          "type": "bool"
        }
      ],
      "name": "settle",
      "outputs": [],
      "payable": false,
      "stateMutability": "nonpayable",
      "type": "function"
    }
  ],
  "bytecode": "0x608060405234801561001057600080fd5b50604051608080610ae68339810180604052810190808051906020019092919080519060200190929190805190602001909291908051906020019092919050505083600060010160006101000a81548173ffffffffffffffffffffffffffffffffffffffff021916908373ffffffffffffffffffffffffffffffffffffffff16021790555082600060020160006101000a81548173ffffffffffffffffffffffffffffffffffffffff021916908373ffffffffffffffffffffffffffffffffffffffff16021790555033600060030160006101000a81548173ffffffffffffffffffffffffffffffffffffffff021916908373ffffffffffffffffffffffffffffffffffffffff16021790555080600060050181905550816000800160006101000a81548173ffffffffffffffffffffffffffffffffffffffff021916908373ffffffffffffffffffffffffffffffffffffffff160217905550436000600701819055507ff7c5f7121b328ce5c14248edc6c3d6586da8cbe83629772d98020bd18a2defec600060010160009054906101000a900473ffffffffffffffffffffffffffffffffffffffff16600060030160009054906101000a900473ffffffffffffffffffffffffffffffffffffffff16600060070154604051808473ffffffffffffffffffffffffffffffffffffffff1673ffffffffffffffffffffffffffffffffffffffff1681526020018373ffffffffffffffffffffffffffffffffffffffff1673ffffffffffffffffffffffffffffffffffffffff168152602001828152602001935050505060405180910390a150505050610871806102756000396000f30060806040526004361061006d576000357c0100000000000000000000000000000000000000000000000000000000900463ffffffff1680631714cfba146100725780631a1c2ec0146100895780634e5364dd146100e957806386287a6314610149578063c4fc12e51461028f575b600080fd5b34801561007e57600080fd5b506100876102be565b005b34801561009557600080fd5b506100e76004803603810190808035906020019092919080359060200190929190803560ff169060200190929190803560001916906020019092919080356000191690602001909291905050506103be565b005b3480156100f557600080fd5b506101476004803603810190808035906020019092919080359060200190929190803560ff16906020019092919080356000191690602001909291908035600019169060200190929190505050610528565b005b34801561015557600080fd5b5061015e61069a565b604051808b73ffffffffffffffffffffffffffffffffffffffff1673ffffffffffffffffffffffffffffffffffffffff1681526020018a73ffffffffffffffffffffffffffffffffffffffff1673ffffffffffffffffffffffffffffffffffffffff1681526020018973ffffffffffffffffffffffffffffffffffffffff1673ffffffffffffffffffffffffffffffffffffffff1681526020018873ffffffffffffffffffffffffffffffffffffffff1673ffffffffffffffffffffffffffffffffffffffff1681526020018773ffffffffffffffffffffffffffffffffffffffff1673ffffffffffffffffffffffffffffffffffffffff1681526020018681526020018581526020018481526020018381526020018281526020019a505050505050505050505060405180910390f35b34801561029b57600080fd5b506102bc60048036038101908080351515906020019092919050505061077c565b005b600073__STKChannelLibrary_____________________63e6e757b190916040518263ffffffff167c01000000000000000000000000000000000000000000000000000000000281526004018082815260200191505060006040518083038186803b15801561032c57600080fd5b505af4158015610340573d6000803e3d6000fd5b505050507f0ad9d12e2b7a7604448d9f6ce29bad1a4dacd7b3eebd488f4e1858061eafa2964333600060060154604051808481526020018373ffffffffffffffffffffffffffffffffffffffff1673ffffffffffffffffffffffffffffffffffffffff168152602001828152602001935050505060405180910390a1565b600073__STKChannelLibrary_____________________63ec3e3d4c90913088888888886040518863ffffffff167c0100000000000000000000000000000000000000000000000000000000028152600401808881526020018773ffffffffffffffffffffffffffffffffffffffff1673ffffffffffffffffffffffffffffffffffffffff1681526020018681526020018581526020018460ff1660ff1681526020018360001916600019168152602001826000191660001916815260200197505050505050505060006040518083038186803b15801561049e57600080fd5b505af41580156104b2573d6000803e3d6000fd5b505050507fc61b98e9e78da0ac7746ade9a160d04e9392bd55571507cba7792680bc82cfcf8433604051808381526020018273ffffffffffffffffffffffffffffffffffffffff1673ffffffffffffffffffffffffffffffffffffffff1681526020019250505060405180910390a15050505050565b600073__STKChannelLibrary_____________________639f93060690913088888888886040518863ffffffff167c0100000000000000000000000000000000000000000000000000000000028152600401808881526020018773ffffffffffffffffffffffffffffffffffffffff1673ffffffffffffffffffffffffffffffffffffffff1681526020018681526020018581526020018460ff1660ff1681526020018360001916600019168152602001826000191660001916815260200197505050505050505060006040518083038186803b15801561060857600080fd5b505af415801561061c573d6000803e3d6000fd5b505050507f0ad9d12e2b7a7604448d9f6ce29bad1a4dacd7b3eebd488f4e1858061eafa296433386604051808481526020018373ffffffffffffffffffffffffffffffffffffffff1673ffffffffffffffffffffffffffffffffffffffff168152602001828152602001935050505060405180910390a15050505050565b60008060000160009054906101000a900473ffffffffffffffffffffffffffffffffffffffff16908060010160009054906101000a900473ffffffffffffffffffffffffffffffffffffffff16908060020160009054906101000a900473ffffffffffffffffffffffffffffffffffffffff16908060030160009054906101000a900473ffffffffffffffffffffffffffffffffffffffff16908060040160009054906101000a900473ffffffffffffffffffffffffffffffffffffffff1690806005015490806006015490806007015490806008015490806009015490508a565b600073__STKChannelLibrary_____________________630a37c50e909130846040518463ffffffff167c0100000000000000000000000000000000000000000000000000000000028152600401808481526020018373ffffffffffffffffffffffffffffffffffffffff1673ffffffffffffffffffffffffffffffffffffffff16815260200182151515158152602001935050505060006040518083038186803b15801561082a57600080fd5b505af415801561083e573d6000803e3d6000fd5b50505050505600a165627a7a7230582039dcb7f6a4c087c7e3d522cb89f4c5671888a324258a2e9156926e5fd461cab60029",
  "source": "pragma solidity ^0.4.23;\n\n\nimport \"./STKChannelLibrary.sol\";\n\n\n/**\nPayment Channel between two parties that allows multiple deposits.\nOnce closed, there is a contest period which allows state updates.\n*/\ncontract STKChannel\n{\n    using STKChannelLibrary for STKChannelLibrary.STKChannelData;\n\n    /**\n     * Storage variables\n     */\n    STKChannelLibrary.STKChannelData public channelData_;\n\n    event LogChannelOpened(address from, address to, uint blockNumber);\n    event LogChannelClosed(uint blockNumber, address closer, uint amount);\n    event LogDeposited(address depositingAddress, uint amount);\n    event LogChannelContested(uint amount, address caller);\n\n    /**\n     * @dev Contract constructor\n     * @param _from The user address in the contract.\n     * @param _addressOfSigner The signer address in the contract.\n     * @param _addressOfToken The address when the ERC20 token is deployed.\n     * @param _expiryNumberOfBlocks The time in blocks of waiting after channel closing after which it can be settled.\n     */\n    constructor (\n        address _from,\n        address _addressOfSigner,\n        address _addressOfToken,\n        uint _expiryNumberOfBlocks)\n        public\n    {\n\n        channelData_.userAddress_ = _from;\n        channelData_.signerAddress_ = _addressOfSigner;\n        channelData_.recipientAddress_ = msg.sender;\n        channelData_.timeout_ = _expiryNumberOfBlocks;\n        channelData_.token_ = STKToken(_addressOfToken);\n        channelData_.openedBlock_ = block.number;\n\n        emit LogChannelOpened(channelData_.userAddress_, channelData_.recipientAddress_, channelData_.openedBlock_);\n    }\n\n    /**\n    * @notice Function to close the payment channel.\n    * @param _nonce The nonce of the deposit. Used for avoiding replay attacks.\n    * @param _amount The amount of tokens claimed to be due to the receiver.\n    * @param _v Cryptographic param v derived from the signature.\n    * @param _r Cryptographic param r derived from the signature.\n    * @param _s Cryptographic param s derived from the signature.\n    */\n    function close(\n        uint _nonce,\n        uint _amount,\n        uint8 _v,\n        bytes32 _r,\n        bytes32 _s)\n        external\n    {\n        channelData_.close(address(this), _nonce, _amount, _v,_r,_s);\n        emit LogChannelClosed(block.number, msg.sender, _amount);\n    }\n\n    /**\n    * @notice Function to close the payment channel without a signature.\n    */\n    function closeWithoutSignature()\n        external\n    {\n        channelData_.closeWithoutSignature();\n        emit LogChannelClosed(block.number, msg.sender, channelData_.amountOwed_);\n    }\n\n    /**\n    * @notice Function to contest the closing state of the payment channel. Will be able to be called for a time period (in blocks) given by timeout after closing of the channel.\n    * @param _nonce The nonce of the deposit. Used for avoiding replay attacks.\n    * @param _amount The amount of tokens claimed to be due to the receiver.\n    * @param _v Cryptographic param v derived from the signature.\n    * @param _r Cryptographic param r derived from the signature.\n    * @param _s Cryptographic param s derived from the signature.\n    */\n    function updateClosedChannel(\n        uint _nonce,\n        uint _amount,\n        uint8 _v,\n        bytes32 _r,\n        bytes32 _s)\n        external\n    {\n        channelData_.updateClosedChannel(address(this), _nonce, _amount, _v, _r, _s);\n        emit LogChannelContested(_amount, msg.sender);\n    }\n\n    /**\n    * @notice After the timeout of the channel after closing has passed, can be called by either participant to withdraw funds.\n    */\n    function settle(bool _returnToken)\n        external\n    {\n        channelData_.settle(address(this), _returnToken);\n    }\n}\n",
  "sourcePath": "/Users/thomasstack/Workspace/STK-smart-contracts/contracts/STKChannel.sol",
  "compiler": {
    "name": "solc",
    "version": "0.4.23+commit.124ca40d.Emscripten.clang"
  },
  "schemaVersion": "2.0.0",
  "updatedAt": "2018-05-31T15:09:51.854Z"
}