{
  "contractName": "STKChannelLibrary",
  "abi": [
    {
      "anonymous": false,
      "inputs": [
        {
          "indexed": false,
          "name": "blockNumber",
          "type": "uint256"
        },
        {
          "indexed": false,
          "name": "finalBalance",
          "type": "uint256"
        }
      ],
      "name": "LogChannelSettled",
      "type": "event"
    },
    {
      "anonymous": false,
      "inputs": [
        {
          "indexed": false,
          "name": "addr",
          "type": "address"
        }
      ],
      "name": "CloseTest",
      "type": "event"
    },
    {
      "constant": false,
      "inputs": [
        {
          "name": "data",
          "type": "STKChannelLibrary.STKChannelData storage"
        },
        {
          "name": "_channelAddress",
          "type": "address"
        },
        {
          "name": "_nonce",
          "type": "uint256"
        },
        {
          "name": "_amount",
          "type": "uint256"
        },
        {
          "name": "_v",
          "type": "uint8"
        },
        {
          "name": "_r",
          "type": "bytes32"
        },
        {
          "name": "_s",
          "type": "bytes32"
        }
      ],
      "name": "close",
      "outputs": [],
      "payable": false,
      "stateMutability": "nonpayable",
      "type": "function"
    },
    {
      "constant": false,
      "inputs": [
        {
          "name": "data",
          "type": "STKChannelLibrary.STKChannelData storage"
        }
      ],
      "name": "closeWithoutSignature",
      "outputs": [],
      "payable": false,
      "stateMutability": "nonpayable",
      "type": "function"
    },
    {
      "constant": false,
      "inputs": [
        {
          "name": "data",
          "type": "STKChannelLibrary.STKChannelData storage"
        },
        {
          "name": "_channelAddress",
          "type": "address"
        },
        {
          "name": "_nonce",
          "type": "uint256"
        },
        {
          "name": "_amount",
          "type": "uint256"
        },
        {
          "name": "_v",
          "type": "uint8"
        },
        {
          "name": "_r",
          "type": "bytes32"
        },
        {
          "name": "_s",
          "type": "bytes32"
        }
      ],
      "name": "updateClosedChannel",
      "outputs": [],
      "payable": false,
      "stateMutability": "nonpayable",
      "type": "function"
    },
    {
      "constant": false,
      "inputs": [
        {
          "name": "data",
          "type": "STKChannelLibrary.STKChannelData storage"
        },
        {
          "name": "_channelAddress",
          "type": "address"
        },
        {
          "name": "_returnToken",
          "type": "bool"
        }
      ],
      "name": "settle",
      "outputs": [],
      "payable": false,
      "stateMutability": "nonpayable",
      "type": "function"
    }
  ],
  "bytecode": "0x6111f5610030600b82828239805160001a6073146000811461002057610022565bfe5b5030600052607381538281f3007300000000000000000000000000000000000000003014608060405260043610610079576000357c0100000000000000000000000000000000000000000000000000000000900463ffffffff1680630a37c50e1461007e5780639f930606146100d7578063e6e757b114610161578063ec3e3d4c1461018e575b600080fd5b81801561008a57600080fd5b506100d560048036038101908080359060200190929190803573ffffffffffffffffffffffffffffffffffffffff169060200190929190803515159060200190929190505050610218565b005b8180156100e357600080fd5b5061015f60048036038101908080359060200190929190803573ffffffffffffffffffffffffffffffffffffffff1690602001909291908035906020019092919080359060200190929190803560ff16906020019092919080356000191690602001909291908035600019169060200190929190505050610859565b005b81801561016d57600080fd5b5061018c60048036038101908080359060200190929190505050610c65565b005b81801561019a57600080fd5b5061021660048036038101908080359060200190929190803573ffffffffffffffffffffffffffffffffffffffff1690602001909291908035906020019092919080359060200190929190803560ff16906020019092919080356000191690602001909291908035600019169060200190929190505050610d96565b005b600080846000816008015411151561022f57600080fd5b8543816005015482600801540110151561024857600080fd5b868060030160009054906101000a900473ffffffffffffffffffffffffffffffffffffffff1673ffffffffffffffffffffffffffffffffffffffff163373ffffffffffffffffffffffffffffffffffffffff1614806102f657508060010160009054906101000a900473ffffffffffffffffffffffffffffffffffffffff1673ffffffffffffffffffffffffffffffffffffffff163373ffffffffffffffffffffffffffffffffffffffff16145b151561030157600080fd5b87600601548860000160009054906101000a900473ffffffffffffffffffffffffffffffffffffffff1673ffffffffffffffffffffffffffffffffffffffff166370a08231896040518263ffffffff167c0100000000000000000000000000000000000000000000000000000000028152600401808273ffffffffffffffffffffffffffffffffffffffff1673ffffffffffffffffffffffffffffffffffffffff168152602001915050602060405180830381600087803b1580156103c557600080fd5b505af11580156103d9573d6000803e3d6000fd5b505050506040513d60208110156103ef57600080fd5b81019080805190602001909291905050501015151561040d57600080fd5b61051d88600601548960000160009054906101000a900473ffffffffffffffffffffffffffffffffffffffff1673ffffffffffffffffffffffffffffffffffffffff166370a082318a6040518263ffffffff167c0100000000000000000000000000000000000000000000000000000000028152600401808273ffffffffffffffffffffffffffffffffffffffff1673ffffffffffffffffffffffffffffffffffffffff168152602001915050602060405180830381600087803b1580156104d457600080fd5b505af11580156104e8573d6000803e3d6000fd5b505050506040513d60208110156104fe57600080fd5b810190808051906020019092919050505061100a90919063ffffffff16565b9450876006015493506000886006018190555060008860040160006101000a81548173ffffffffffffffffffffffffffffffffffffffff021916908373ffffffffffffffffffffffffffffffffffffffff160217905550438860070181905550600088600801819055506000886009018190555060008411156106cc578760000160009054906101000a900473ffffffffffffffffffffffffffffffffffffffff1673ffffffffffffffffffffffffffffffffffffffff1663a9059cbb8960030160009054906101000a900473ffffffffffffffffffffffffffffffffffffffff16866040518363ffffffff167c0100000000000000000000000000000000000000000000000000000000028152600401808373ffffffffffffffffffffffffffffffffffffffff1673ffffffffffffffffffffffffffffffffffffffff16815260200182815260200192505050602060405180830381600087803b15801561068557600080fd5b505af1158015610699573d6000803e3d6000fd5b505050506040513d60208110156106af57600080fd5b810190808051906020019092919050505015156106cb57600080fd5b5b6000851180156106d95750855b15610810578760000160009054906101000a900473ffffffffffffffffffffffffffffffffffffffff1673ffffffffffffffffffffffffffffffffffffffff1663a9059cbb8960010160009054906101000a900473ffffffffffffffffffffffffffffffffffffffff16876040518363ffffffff167c0100000000000000000000000000000000000000000000000000000000028152600401808373ffffffffffffffffffffffffffffffffffffffff1673ffffffffffffffffffffffffffffffffffffffff16815260200182815260200192505050602060405180830381600087803b1580156107c957600080fd5b505af11580156107dd573d6000803e3d6000fd5b505050506040513d60208110156107f357600080fd5b8101908080519060200190929190505050151561080f57600080fd5b5b7f73a1661a0cd6baadb9676e29b8e892fff0899dfad250d6d8113082f09999ff394385604051808381526020018281526020019250505060405180910390a15050505050505050565b6000876000816008015414151561086f57600080fd5b6000816007015411151561088257600080fd5b888060030160009054906101000a900473ffffffffffffffffffffffffffffffffffffffff1673ffffffffffffffffffffffffffffffffffffffff163373ffffffffffffffffffffffffffffffffffffffff16148061093057508060010160009054906101000a900473ffffffffffffffffffffffffffffffffffffffff1673ffffffffffffffffffffffffffffffffffffffff163373ffffffffffffffffffffffffffffffffffffffff16145b151561093b57600080fd5b8960000160009054906101000a900473ffffffffffffffffffffffffffffffffffffffff1673ffffffffffffffffffffffffffffffffffffffff166370a082318a6040518263ffffffff167c0100000000000000000000000000000000000000000000000000000000028152600401808273ffffffffffffffffffffffffffffffffffffffff1673ffffffffffffffffffffffffffffffffffffffff168152602001915050602060405180830381600087803b1580156109fa57600080fd5b505af1158015610a0e573d6000803e3d6000fd5b505050506040513d6020811015610a2457600080fd5b81019080805190602001909291905050508711151515610a4357600080fd5b610a50888887878a611023565b92508960020160009054906101000a900473ffffffffffffffffffffffffffffffffffffffff1673ffffffffffffffffffffffffffffffffffffffff168373ffffffffffffffffffffffffffffffffffffffff16148015610b0057503373ffffffffffffffffffffffffffffffffffffffff168a60030160009054906101000a900473ffffffffffffffffffffffffffffffffffffffff1673ffffffffffffffffffffffffffffffffffffffff16145b80610bb557508960030160009054906101000a900473ffffffffffffffffffffffffffffffffffffffff1673ffffffffffffffffffffffffffffffffffffffff168373ffffffffffffffffffffffffffffffffffffffff16148015610bb457503373ffffffffffffffffffffffffffffffffffffffff168a60020160009054906101000a900473ffffffffffffffffffffffffffffffffffffffff1673ffffffffffffffffffffffffffffffffffffffff16145b5b1515610bc057600080fd5b3373ffffffffffffffffffffffffffffffffffffffff168373ffffffffffffffffffffffffffffffffffffffff1614151515610bfb57600080fd5b868a60060181905550878a60090181905550438a60080181905550338a60040160006101000a81548173ffffffffffffffffffffffffffffffffffffffff021916908373ffffffffffffffffffffffffffffffffffffffff16021790555050505050505050505050565b8060008160080154141515610c7957600080fd5b60008160070154111515610c8c57600080fd5b818060030160009054906101000a900473ffffffffffffffffffffffffffffffffffffffff1673ffffffffffffffffffffffffffffffffffffffff163373ffffffffffffffffffffffffffffffffffffffff161480610d3a57508060010160009054906101000a900473ffffffffffffffffffffffffffffffffffffffff1673ffffffffffffffffffffffffffffffffffffffff163373ffffffffffffffffffffffffffffffffffffffff16145b1515610d4557600080fd5b438360080181905550338360040160006101000a81548173ffffffffffffffffffffffffffffffffffffffff021916908373ffffffffffffffffffffffffffffffffffffffff160217905550505050565b6000878060030160009054906101000a900473ffffffffffffffffffffffffffffffffffffffff1673ffffffffffffffffffffffffffffffffffffffff163373ffffffffffffffffffffffffffffffffffffffff161480610e4657508060010160009054906101000a900473ffffffffffffffffffffffffffffffffffffffff1673ffffffffffffffffffffffffffffffffffffffff163373ffffffffffffffffffffffffffffffffffffffff16145b1515610e5157600080fd5b8860008160080154111515610e6557600080fd5b868a60000160009054906101000a900473ffffffffffffffffffffffffffffffffffffffff1673ffffffffffffffffffffffffffffffffffffffff166370a082318b6040518263ffffffff167c0100000000000000000000000000000000000000000000000000000000028152600401808273ffffffffffffffffffffffffffffffffffffffff1673ffffffffffffffffffffffffffffffffffffffff168152602001915050602060405180830381600087803b158015610f2557600080fd5b505af1158015610f39573d6000803e3d6000fd5b505050506040513d6020811015610f4f57600080fd5b810190808051906020019092919050505010151515610f6d57600080fd5b610f7a888887878a611023565b92508960020160009054906101000a900473ffffffffffffffffffffffffffffffffffffffff1673ffffffffffffffffffffffffffffffffffffffff168373ffffffffffffffffffffffffffffffffffffffff16141515610fda57600080fd5b896009015488111515610fec57600080fd5b878a60090181905550868a6006018190555050505050505050505050565b600082821115151561101857fe5b818303905092915050565b600060606000806040805190810160405280601c81526020017f19457468657265756d205369676e6564204d6573736167653a0a3332000000008152509250308989604051808473ffffffffffffffffffffffffffffffffffffffff1673ffffffffffffffffffffffffffffffffffffffff166c0100000000000000000000000002815260140183815260200182815260200193505050506040518091039020915082826040518083805190602001908083835b6020831015156110fc57805182526020820191506020810190506020830392506110d7565b6001836020036101000a03801982511681845116808217855250505050505090500182600019166000191681526020019250505060405180910390209050600181868989604051600081526020016040526040518085600019166000191681526020018460ff1660ff1681526020018360001916600019168152602001826000191660001916815260200194505050505060206040516020810390808403906000865af11580156111b1573d6000803e3d6000fd5b505050602060405103519350505050959450505050505600a165627a7a723058203ce784f3b6696e38dda5b4cd7da8172df3a4be5d411b34db54411706a313e0100029",
  "source": "pragma solidity ^0.4.23;\n\nimport \"./STKToken.sol\";\nimport \"./SafeMathLib.sol\";\n\nlibrary STKChannelLibrary\n{\n    using SafeMathLib for uint;\n\n    struct STKChannelData\n    {    STKToken token_;\n         address userAddress_;\n         address signerAddress_;\n         address recipientAddress_;\n         address closingAddress_;\n         uint timeout_;\n         uint amountOwed_;\n         uint openedBlock_;\n         uint closedBlock_;\n         uint closedNonce_;\n    }\n\n    event LogChannelSettled(uint blockNumber, uint finalBalance);\n    event CloseTest(address addr);\n\n    modifier channelAlreadyClosed(STKChannelData storage data)\n    {\n        require(data.closedBlock_ > 0);\n        _;\n    }\n\n    modifier timeoutOver(STKChannelData storage data)\n    {\n        require(data.closedBlock_ + data.timeout_ < block.number);\n        _;\n    }\n\n    modifier channelIsOpen(STKChannelData storage data)\n    {\n        require(data.closedBlock_ == 0);\n        require(data.openedBlock_ > 0);\n        _;\n    }\n\n    modifier callerIsChannelParticipant(STKChannelData storage data)\n    {\n        require(msg.sender == data.recipientAddress_  || msg.sender == data.userAddress_);\n        _;\n    }\n\n    /**\n    * @notice Function to close the payment channel.\n    * @param data The channel specific data to work on.\n    * @param _nonce The nonce of the deposit. Used for avoiding replay attacks.\n    * @param _amount The amount of tokens claimed to be due to the receiver.\n    * @param _v Cryptographic param v derived from the signature.\n    * @param _r Cryptographic param r derived from the signature.\n    * @param _s Cryptographic param s derived from the signature.\n    */\n    function close(\n        STKChannelData storage data,\n        address _channelAddress,\n        uint _nonce,\n        uint _amount,\n        uint8 _v,\n        bytes32 _r,\n        bytes32 _s)\n        public\n        channelIsOpen(data)\n        callerIsChannelParticipant(data)\n    {\n        require(_amount <= data.token_.balanceOf(_channelAddress));\n        address signerAddress = recoverAddressFromHashAndParameters(_nonce,_amount,_r,_s,_v);\n        require((signerAddress == data.signerAddress_ && data.recipientAddress_  == msg.sender) || (signerAddress == data.recipientAddress_  && data.signerAddress_==msg.sender));\n        require(signerAddress!=msg.sender);\n        data.amountOwed_ = _amount;\n        data.closedNonce_ = _nonce;\n        data.closedBlock_ = block.number;\n        data.closingAddress_ = msg.sender;\n    }\n\n    /**\n    * @notice Function to close the payment channel without a signature.\n    * @param data The channel specific data to work on.\n    */\n    function closeWithoutSignature(STKChannelData storage data)\n        public\n        channelIsOpen(data)\n        callerIsChannelParticipant(data)\n      {\n        data.closedBlock_ = block.number;\n        data.closingAddress_ = msg.sender;\n      }\n\n    /**\n    * @notice Function to contest the closing state of the payment channel. Will be able to be called for a time period (in blocks) given by timeout after closing of the channel.\n    * @param data The channel specific data to work on.\n    * @param _nonce The nonce of the deposit. Used for avoiding replay attacks.\n    * @param _amount The amount of tokens claimed to be due to the receiver.\n    * @param _v Cryptographic param v derived from the signature.\n    * @param _r Cryptographic param r derived from the signature.\n    * @param _s Cryptographic param s derived from the signature.\n    */\n    function updateClosedChannel(\n        STKChannelData storage data,\n        address _channelAddress,\n        uint _nonce,\n        uint _amount,\n        uint8 _v,\n        bytes32 _r,\n        bytes32 _s)\n        public\n        callerIsChannelParticipant(data)\n        channelAlreadyClosed(data)\n    {\n        require(data.token_.balanceOf(_channelAddress) >= _amount);\n        address signerAddress = recoverAddressFromHashAndParameters(_nonce,_amount,_r,_s,_v);\n        require(signerAddress == data.signerAddress_);\n        //require that the nonce of this transaction be higher than the previous closing nonce\n        require(_nonce > data.closedNonce_);\n        data.closedNonce_ = _nonce;\n        //update the amount\n        data.amountOwed_ = _amount;\n    }\n\n    /**\n    * @notice After the timeout of the channel after closing has passed, can be called by either participant to withdraw funds.\n    * @param data The channel specific data to work on.\n    */\n    function settle(STKChannelData storage data, address _channelAddress, bool _returnToken)\n        public\n        channelAlreadyClosed(data)\n        timeoutOver(data)\n        callerIsChannelParticipant(data)\n    {\n        require(data.token_.balanceOf(_channelAddress)>= data.amountOwed_);\n        uint returnToUserAmount = data.token_.balanceOf(_channelAddress).minus(data.amountOwed_);\n        uint owedAmount = data.amountOwed_;\n        data.amountOwed_ = 0;\n\n        data.closingAddress_ = 0x0000000000000000000000000000000000000000;\n        data.openedBlock_ = block.number;\n        data.closedBlock_ = 0;\n        data.closedNonce_ = 0;\n\n        if(owedAmount > 0)\n        {\n            require(data.token_.transfer(data.recipientAddress_ ,owedAmount));\n        }\n\n        if(returnToUserAmount > 0 && _returnToken)\n        {\n            require(data.token_.transfer(data.userAddress_,returnToUserAmount));\n        }\n\n        emit LogChannelSettled(block.number,owedAmount);\n    }\n\n    /**\n    * @notice After the timeout of the channel after closing has passed, can be called by either participant to withdraw funds.\n    * @param _nonce The nonce of the deposit. Used for avoiding replay attacks.\n    * @param _amount The amount of tokens claimed to be due to the receiver.\n    * @param r Cryptographic param v derived from the signature.\n    * @param s Cryptographic param r derived from the signature.\n    * @param v Cryptographic param s derived from the signature.\n    */\n    function recoverAddressFromHashAndParameters(uint _nonce,uint _amount,bytes32 r,bytes32 s,uint8 v)\n        internal view\n        returns (address)\n    {\n        bytes memory prefix = \"\\x19Ethereum Signed Message:\\n32\";\n        bytes32 msgHash = keccak256(this,_nonce,_amount);\n        bytes32 prefixedHash = keccak256(prefix, msgHash);\n        return ecrecover(prefixedHash, v, r, s);\n    }\n}\n",
  "sourcePath": "/Users/thomasstack/Workspace/STK-smart-contracts/contracts/STKChannelLibrary.sol",
  "compiler": {
    "name": "solc",
    "version": "0.4.23+commit.124ca40d.Emscripten.clang"
  },
  "schemaVersion": "2.0.0",
  "updatedAt": "2018-05-31T15:09:51.860Z"
}